:020000040800F2
:1000000038050020290200083702000839020008DC
:100010003B0200083D0200083F020008000000000B
:100020000000000000000000000000004102000885
:1000300043020008000000004502000847020008D3
:100040004902000849020008490200084902000864
:100050004902000849020008490200084902000854
:100060004902000849020008490200084902000844
:100070004902000849020008490200084902000834
:100080004902000849020008490200084902000824
:100090004902000849020008490200084902000814
:1000A0004902000849020008490200084902000804
:1000B00049020008490200084902000849020008F4
:1000C00049020008490200084902000849020008E4
:1000D00049020008CD03000849020008490200084F
:1000E00049020008490200084902000849020008C4
:1000F00049020008490200084902000849020008B4
:1001000049020008490200084902000849020008A3
:100110004902000849020008490200084902000893
:100120004902000849020008490200084902000883
:100130004902000849020008490200084902000873
:100140004902000849020008490200084902000863
:100150004902000849020008490200084902000853
:100160004902000849020008490200084902000843
:100170004902000849020008490200084902000833
:10018000490200084902000800F002F800F03CF8BB
:100190000AA090E8000C82448344AAF10107DA45E2
:1001A00001D100F031F8AFF2090EBAE80F0013F0F8
:1001B000010F18BFFB1A43F001031847A403000006
:1001C000C4030000103A24BF78C878C1FAD8520797
:1001D00024BF30C830C144BF04680C6070470000C1
:1001E0000023002400250026103A28BF78C1FBD840
:1001F000520728BF30C148BF0B6070471FB500F0E1
:10020000A9F91FBD10B510BD00F035F81146FFF774
:10021000F5FF00F079F900F053F803B4FFF7F2FFAF
:1002200003BC00F013F900000B48016841F47001B1
:1002300001600A480047FEE7FEE7FEE7FEE7FEE74B
:10024000FEE7FEE7FEE7FEE7FEE70000044805499B
:10025000034A054B7047000088ED00E08901000863
:100260003801002038050020380100207047704711
:10027000704770477047754600F028F8AE46050095
:100280006946534620F00700854618B020B5FFF7B1
:10029000DDFFBDE820404FF000064FF000074FF0B3
:1002A00000084FF0000B21F00701AC46ACE8C00994
:1002B000ACE8C009ACE8C009ACE8C0098D4670479D
:1002C0000446AFF300802046FFF7A7FF00487047C1
:1002D000D40000203B48006840F020003949086005
:1002E0003948006820F488003749086008460068EB
:1002F00040F48020086034480830006820F488000A
:100300003149083108600846006840F48000086000
:10031000081D006820F48800091D08600846006870
:1003200040F4802008602848001D006820F4007018
:100330002549091D08600846006840F400700860FF
:1003400021481430006840F400701F4914310860DF
:100350001D48006820F088701B4908600846006846
:1003600040F48010086018480830006820F0887059
:100370001549083108600846006840F08070086040
:10038000081D006820F08870091D08600846006894
:1003900040F4801008600C48001D006820F4806064
:1003A0000949091D08600846006840F4806008603B
:1003B00005481430006840F4806003491431086037
:1003C0007047000030380240001402401C49098880
:1003D00001F0200109B31A498988C8B2194909886E
:1003E00001F40041C9B91749098801F4804161B19C
:1003F0000A2803D00021134A118020E011490988FE
:1004000041F400410F4A118019E00D2806D10D4931
:10041000098841F480410B4A118010E0094909889C
:10042000C1F30D01084A505406490988491C054A80
:10043000118011460988C72901DD0021118070470C
:1004400000100140080000200C000020014600BF01
:10045000704700004FF0E021096921F004014FF0DE
:10046000E0221161C21700EB5272C2F3C702074BC0
:100470001A701946097801EB4102C2EBC1114FF61F
:10048000FF7202EAC101024A118070470000002099
:100490000200002070B504464FF4077094FBF0F0A2
:1004A000C6B24FF4077094FBF0F100FB114085B227
:1004B00005E04FF4077000F009F8701EC6B2002E78
:1004C000F7D115B1284600F001F870BD01460D4A7C
:1004D00012884A434FF0E0235A6100229A610122B8
:1004E0001A6100BF4FF0E022106900F001021AB15A
:1004F00000F48032002AF5D000224FF0E0231A6188
:100500009A61704702000020A820FFF7A3FFFFF7C1
:10051000E1FE1BE00E48006820F400700C49086002
:100520000846006840F4806008603220FFF7B2FFA0
:100530000748006820F480600549086008460068A4
:1005400040F4007008603220FFF7A4FFE2E70000EB
:10055000141402404FF04070E1EE100A70470000A2
:1005600080050008000000200C000000C401000805
:100570008C0500080C0000202C050000E00100089C
:0C0580000000000000000000000000006F
:040000050800018965
:00000001FF
